{
  "_format": "hh-sol-artifact-1",
  "contractName": "Faucet",
  "sourceName": "contracts/Faucet.sol",
  "abi": [
    {
      "inputs": [],
      "stateMutability": "payable",
      "type": "constructor"
    },
    {
      "inputs": [],
      "name": "destroyFaucet",
      "outputs": [],
      "stateMutability": "nonpayable",
      "type": "function"
    },
    {
      "inputs": [],
      "name": "owner",
      "outputs": [
        {
          "internalType": "address payable",
          "name": "",
          "type": "address"
        }
      ],
      "stateMutability": "view",
      "type": "function"
    },
    {
      "inputs": [
        {
          "internalType": "uint256",
          "name": "_amount",
          "type": "uint256"
        }
      ],
      "name": "withdraw",
      "outputs": [],
      "stateMutability": "payable",
      "type": "function"
    },
    {
      "inputs": [],
      "name": "withdrawAll",
      "outputs": [],
      "stateMutability": "nonpayable",
      "type": "function"
    }
  ],
  "bytecode": "0x6080604052336000806101000a81548173ffffffffffffffffffffffffffffffffffffffff021916908373ffffffffffffffffffffffffffffffffffffffff16021790555061064c806100536000396000f3fe60806040526004361061003f5760003560e01c80632e1a7d4d146100445780635700c29014610060578063853828b6146100775780638da5cb5b1461008e575b600080fd5b61005e600480360381019061005991906103cc565b6100b9565b005b34801561006c57600080fd5b506100756101b4565b005b34801561008357600080fd5b5061008c610245565b005b34801561009a57600080fd5b506100a361036d565b6040516100b0919061043a565b60405180910390f35b67016345785d8a0000811115610104576040517f08c379a00000000000000000000000000000000000000000000000000000000081526004016100fb906104d8565b60405180910390fd5b60003373ffffffffffffffffffffffffffffffffffffffff168260405161012a90610529565b60006040518083038185875af1925050503d8060008114610167576040519150601f19603f3d011682016040523d82523d6000602084013e61016c565b606091505b50509050806101b0576040517f08c379a00000000000000000000000000000000000000000000000000000000081526004016101a79061058a565b60405180910390fd5b5050565b60008054906101000a900473ffffffffffffffffffffffffffffffffffffffff1673ffffffffffffffffffffffffffffffffffffffff163373ffffffffffffffffffffffffffffffffffffffff161461020c57600080fd5b60008054906101000a900473ffffffffffffffffffffffffffffffffffffffff1673ffffffffffffffffffffffffffffffffffffffff16ff5b60008054906101000a900473ffffffffffffffffffffffffffffffffffffffff1673ffffffffffffffffffffffffffffffffffffffff163373ffffffffffffffffffffffffffffffffffffffff161461029d57600080fd5b60008060009054906101000a900473ffffffffffffffffffffffffffffffffffffffff1673ffffffffffffffffffffffffffffffffffffffff16476040516102e490610529565b60006040518083038185875af1925050503d8060008114610321576040519150601f19603f3d011682016040523d82523d6000602084013e610326565b606091505b505090508061036a576040517f08c379a0000000000000000000000000000000000000000000000000000000008152600401610361906105f6565b60405180910390fd5b50565b60008054906101000a900473ffffffffffffffffffffffffffffffffffffffff1681565b600080fd5b6000819050919050565b6103a981610396565b81146103b457600080fd5b50565b6000813590506103c6816103a0565b92915050565b6000602082840312156103e2576103e1610391565b5b60006103f0848285016103b7565b91505092915050565b600073ffffffffffffffffffffffffffffffffffffffff82169050919050565b6000610424826103f9565b9050919050565b61043481610419565b82525050565b600060208201905061044f600083018461042b565b92915050565b600082825260208201905092915050565b7f43616e6e6f74207769746864726177206d6f7265207468616e20302e3120455460008201527f4800000000000000000000000000000000000000000000000000000000000000602082015250565b60006104c2602183610455565b91506104cd82610466565b604082019050919050565b600060208201905081810360008301526104f1816104b5565b9050919050565b600081905092915050565b50565b60006105136000836104f8565b915061051e82610503565b600082019050919050565b600061053482610506565b9150819050919050565b7f4661696c656420746f2073656e64204574686572000000000000000000000000600082015250565b6000610574601483610455565b915061057f8261053e565b602082019050919050565b600060208201905081810360008301526105a381610567565b9050919050565b7f4661696c656420746f20776974686472617720616c6c2066756e647300000000600082015250565b60006105e0601c83610455565b91506105eb826105aa565b602082019050919050565b6000602082019050818103600083015261060f816105d3565b905091905056fea264697066735822122024769d3d51bd0b3842313a89259c03c18ea77ea45b8929631e2e0e570a99971e64736f6c634300081c0033",
  "linkReferences": {},
  "deployedLinkReferences": {}
}