{
  "_format": "hh-sol-artifact-1",
  "contractName": "Faucet",
  "sourceName": "contracts/Faucet.sol",
  "abi": [
    {
      "inputs": [],
      "stateMutability": "payable",
      "type": "constructor"
    },
    {
      "inputs": [],
      "name": "destroyFaucet",
      "outputs": [],
      "stateMutability": "nonpayable",
      "type": "function"
    },
    {
      "inputs": [],
      "name": "owner",
      "outputs": [
        {
          "internalType": "address payable",
          "name": "",
          "type": "address"
        }
      ],
      "stateMutability": "view",
      "type": "function"
    },
    {
      "inputs": [
        {
          "internalType": "uint256",
          "name": "_amount",
          "type": "uint256"
        }
      ],
      "name": "withdraw",
      "outputs": [],
      "stateMutability": "payable",
      "type": "function"
    },
    {
      "inputs": [],
      "name": "withdrawAll",
      "outputs": [],
      "stateMutability": "nonpayable",
      "type": "function"
    }
  ],
  "bytecode": "0x6080604052336000806101000a81548173ffffffffffffffffffffffffffffffffffffffff021916908373ffffffffffffffffffffffffffffffffffffffff160217905550610584806100536000396000f3fe60806040526004361061003f5760003560e01c80632e1a7d4d146100445780635700c29014610060578063853828b6146100775780638da5cb5b1461008e575b600080fd5b61005e60048036038101906100599190610396565b6100b9565b005b34801561006c57600080fd5b5061007561017e565b005b34801561008357600080fd5b5061008c61020f565b005b34801561009a57600080fd5b506100a3610337565b6040516100b09190610404565b60405180910390f35b67016345785d8a00008111156100ce57600080fd5b60003373ffffffffffffffffffffffffffffffffffffffff16826040516100f490610450565b60006040518083038185875af1925050503d8060008114610131576040519150601f19603f3d011682016040523d82523d6000602084013e610136565b606091505b505090508061017a576040517f08c379a0000000000000000000000000000000000000000000000000000000008152600401610171906104c2565b60405180910390fd5b5050565b60008054906101000a900473ffffffffffffffffffffffffffffffffffffffff1673ffffffffffffffffffffffffffffffffffffffff163373ffffffffffffffffffffffffffffffffffffffff16146101d657600080fd5b60008054906101000a900473ffffffffffffffffffffffffffffffffffffffff1673ffffffffffffffffffffffffffffffffffffffff16ff5b60008054906101000a900473ffffffffffffffffffffffffffffffffffffffff1673ffffffffffffffffffffffffffffffffffffffff163373ffffffffffffffffffffffffffffffffffffffff161461026757600080fd5b60008060009054906101000a900473ffffffffffffffffffffffffffffffffffffffff1673ffffffffffffffffffffffffffffffffffffffff16476040516102ae90610450565b60006040518083038185875af1925050503d80600081146102eb576040519150601f19603f3d011682016040523d82523d6000602084013e6102f0565b606091505b5050905080610334576040517f08c379a000000000000000000000000000000000000000000000000000000000815260040161032b9061052e565b60405180910390fd5b50565b60008054906101000a900473ffffffffffffffffffffffffffffffffffffffff1681565b600080fd5b6000819050919050565b61037381610360565b811461037e57600080fd5b50565b6000813590506103908161036a565b92915050565b6000602082840312156103ac576103ab61035b565b5b60006103ba84828501610381565b91505092915050565b600073ffffffffffffffffffffffffffffffffffffffff82169050919050565b60006103ee826103c3565b9050919050565b6103fe816103e3565b82525050565b600060208201905061041960008301846103f5565b92915050565b600081905092915050565b50565b600061043a60008361041f565b91506104458261042a565b600082019050919050565b600061045b8261042d565b9150819050919050565b600082825260208201905092915050565b7f4661696c656420746f2073656e64206574686572000000000000000000000000600082015250565b60006104ac601483610465565b91506104b782610476565b602082019050919050565b600060208201905081810360008301526104db8161049f565b9050919050565b7f4661696c656420746f20776974686472617720616c6c2066756e647300000000600082015250565b6000610518601c83610465565b9150610523826104e2565b602082019050919050565b600060208201905081810360008301526105478161050b565b905091905056fea26469706673582212208003c662131e89ff5c84281a0e1df445aa3e3442ab42d90e8c39db682dddbf5764736f6c634300081c0033",
  "linkReferences": {},
  "deployedLinkReferences": {}
}